:040000000200643264
:03000B000205C02B
:0100130032BA
:03001B0002069545
:200020000000E2FBEAF2802C0000E0FBEAF08024E6B50202EBF62200E2B50202EBF22200C6
:20004000E0B50202EBF02230F6E0A88220F5D3EAC6F582228B822230F6E6A88220F5D980D6
:01006000CFD0
:0F00BD00752AFF752BFF752CFF754C0B02006128
:030061000207741F
:2000CC00AF828FF005F07401800225E0D5F0FB429D75BD0075BC8022AF8274E84FF5BC0042
:2000EC00E5BC30E4FB53BCEFAEBD7F00EE2EFEEF33FFEE2EFEEF33FFACBE5304037D00ECB9
:20010C004206ED42078E828F8322AD82AE83AFF0758220C007C006C005120261AC82D00531
:20012C00D006D007BCA519758221C007C006C005120261AC82D005D006D007BC5A02804520
:20014C007521A5758220C007C006C0051202CA75215A7582211202CAD005D006D0077C002D
:20016C008C0374022B4420F582752100C007C006C005C0041202CAD004D005D006D0070C7C
:20018C00BC070040DB7C00EC2DF9E43EFA8F038C007402284420F582C007C006C005C0041E
:2001AC00C003C002C001120261A882D001D002D003D004D005D006D00789828A838BF0E807
:2001CC00120F5D0CBC070040BE22AD82AE83AFF07C008C0374022B4420FBEC2DF8E43EF970
:2001EC008F02888289838AF0120FC5F5218B82C007C006C005C0041202CAD004D005D00656
:20020C00D0070CBC070040CA22AF827E000000EF5401FD24FF9292D2900000C290EFC31350
:20022C00FF0EBE080040E622AF82C291C290D2918F820202157F007E017D000000309203F4
:20024C00EE4207D2900000C290EE2EFE0DBD080040E98F8222E5822582FF74814FF5821285
:20026C000234120241C29122AD82AE83AFF07582BFC007C006C005120234D005D006D007A1
:20028C007C00EC2DF9E43EFA8F03C007C006C005C004C003C002C001120241A882D001D09A
:2002AC0002D003D004D005D006D00789828A838BF0E8120F5D0CBC080040C7C29122E5825B
:2002CC002582FF74804FF582120234852182120215C29122AD82AE83AFF07582BEC007C069
:2002EC0006C005120234D005D006D0077C00EC2DF9E43EFA8F0389828A838BF0120FC5F5B3
:20030C0082C007C006C005C004120215D004D005D006D0070CBC080040D4C291227582006A
:20032C00120261AF82752100758207C0071202CAD007747F5FF5217582000202CA75210038
:20034C007582011202CA7521007582021202CA7521257582061202CA752101758204120212
:20036C00CA7521017582030202CAAF82BF170050030F80027F008F8212050E858221758289
:20038C00020202CAAF82BF3B0050030F80027F018F8212050E8582217582010202CA752138
:2003AC00007582000202CAAD82AE83AFF074042DFAE43EFB8F048A828B838CF0120FC5C4DE
:2003CC00540175F00AA4FA74042DFDE43EFE8D828E838FF0120FC5540F2AFFBF0C005003BE
:2003EC000F80027F018F8212050E8582217582040202CAAD82AE83AFF074062DFAE43EFBFC
:20040C008F048A828B838CF0120FC5C4540F75F00AA4FA74062DFDE43EFE8D828E838FF02A
:20042C00120FC5540F2AFFBF320050030F80027F198F8212050E8582217582060202CAADFB
:20044C0082AE83AFF074032DFAE43EFB8F048A828B838CF0120FC5C4540375F00AA4FA74D8
:20046C00032DFDE43EFE8D828E838FF0120FC5540F2AFFBF1F0050030F80027F018F8212AD
:20048C00050E8582217582030202CAAD82AE83AFF074052DFDE43EFE8D828E838FF0120FCB
:2004AC00C55407FCBC070050308D028E038F048A828B838CF0120FC55407F9098A828B832B
:2004CC008CF0E95407C0F0C0E0120FC5D0F054F845F0D0F0120F5D80168D028E038F048AC8
:2004EC00828B838CF0120FC554F84401120F5D8D828E838FF0120FC55407F52175820502FB
:20050C0002CAAF828F0675F00AEE84C454F0FE75F00AEF84E5F04EF58222AF8275F00AEF29
:20052C008475F00A84AFF08F8222AF8275F00AEF84AFF08F8222AF8275F00AEF84AE222E70
:20054C00FFEFB522FC22782FE6C4540375F00AA4FF782FE6540F2FF53C782EE6C454077582
:20056C00F00AA4FF782EE6540F2FF53D782DE6C4540775F00AA4FF782DE6540F2FF53E2254
:20058C00AF82AC10AD11AE128C018D028E038F0075F00AE88489828A838BF0120F5D0CBCF4
:2005AC0000010D75F00AEF84AFF08C828D838EF0EF020F5DC0E0C0F0C0D075D008AF435335
:2005CC000F0353A0F08528F0E54384AEF0BE04004003020689EF2448F987B0740BB54C048E
:2005EC0074018001E4FE6006BF0103200134EE6007BF0304E536702A7407B54C07BF030480
:20060C00E536701E740AB54C07BF0304E5397012740CB54C05BF010280087410B54C05BF20
:20062C000102C2B77405B54C02802F7406B54C0280287407B54C0280217408B54C02801AAA
:20064C007409B54C028013740AB54C02800C7403B54C0280057404B54C05BF0102C2B78F27
:20066C00F005F07F08E4FE3392D28008A2D2EE13FEEF13FFD5F0F5530F0FEF42A0E5430465
:20068C00F543D0D0D0F0D0E032C0E0C0D075D008AF4FAE50AD4DAC4EEF240550027F64EE2C
:2006AC00240550027E64ED540F70030F80027F00EC540F70030E80027E008F4F8E50ED2D58
:2006CC00FDA2A7E4334DF54DEC2CFCA2A6E4334CF54E0522D0D0D0E032758AA4758CFFC212
:2006EC008DD28CD2A9D2AF22758BD5758DDBC28FD28ED2ABD2AF22E582FF244FF9E724691C
:20070C00500A75821E12054275820222EF244FF9E7600A75821E12054275820122758200BF
:20072C0022AF82300210900FEFE493F544900FEFE493F545800FEF900FE593F544E5109048
:20074C000FE593F54530030F900FEFE493F546900FEFE493F54722E511900FE593F546E5BA
:20076C0012900FE593F547224391C04392C075B10075B2FF5395F043960F43930243940200
:20078C0012032990003575F0401201161206E51206F47582641205420524E4B524020525AD
:2007AC0043C110852482852583751028751100120F78E5828583F045F070217582061200C1
:2007CC00E4AE82E583C4CEC4540F6ECE540FCE6ECE8E2874FC25284003752804E535FF338C
:2007EC0095E0FE743D2FFFE43EFE758207C007C0061200E4E5835403A2E0C58213C5821305
:20080C00A2E0C58213C58213C582F583751002751104120F34AC82AD83D006D007EFC39C18
:20082C00FCEE9DFD8C268D2790002D75F04012027412055274FFB52A1CB52B19E536605D30
:20084C00E53CFFB53757E53DB53852752AC8752B0005298048E52A452B700FE53CB53702BE
:20086C00803B752AFF752BFF8033758200120703E582700A758201120703E582600CE4F50D
:20088C002AF52B1529D28102079E152A74FFB52A02152BE52A452B70041529D28174FFB54B
:2008AC002C3CE539604CE53D7048E53E7044AF3AAE3BC3EE9F400BAD3CC3ED9F4004EE9DD5
:2008CC005015AF3AAE3BC3EE9F5027AD3CC3ED9F5005C3EE9D401B752C0105298014E52C63
:2008EC007009E53D600C752CFF8007D52C041529D281E5296018E52C7006E52A452B600E2E
:20090C00782DE65401FF7004C2818002D281C201E54C24EF5003020C4BE54C240B83F58253
:20092C00E54C241583F583E473A8D2FC578026629ED70D434B76ABCBEB1109090909090AEB
:20094C000A0A0A0B0B0C0B0B0B0B0CD201B202758201120703E5826006853C821203767568
:20096C008200120703E5827003020C9EC202754C04020C9ED201B203758201120703E5820F
:20098C006006853D82120390758200120703E5827003020C9EC203054C020C9EB2027582F6
:2009AC0001120703E582600990002D75F04012044B758200120703E5827003020C9EC2021E
:2009CC00754C01020C9EB203758201120703E582600990002D75F0401203B37582001207CA
:2009EC0003E5827003020C9EC203754C02020C9EB203758201120703E582600990002D7563
:200A0C00F0401203FF758200120703E5827003020C9EC203754C0F020C9ED201B20275822E
:200A2C0001120703E5826019E53704FF8F37BF18004003753700753601752AFF752BFFD247
:200A4C0000758200120703E5827003020C9EC202754C06020C9ED201B2037582011207031E
:200A6C00E5826019E53804FF8F38BF3C004003753800753601752AFF752BFFD20075820006
:200A8C00120703E5827003020C9EC203754C07020C9ED201B202B203758201120703E582B8
:200AAC006013E536B401009204E433F536752AFF752BFFD200758200120703E58270030211
:200ACC000C9EC202C203054C020C9ED201B202758201120703E5826013E53A04FF8F3ABFBB
:200AEC0018004003753A00753901D200758200120703E5827003020C9EC202754C09020C2A
:200B0C009ED201B203758201120703E5826013E53B04FF8F3BBF18004003753B007539014F
:200B2C00D200758200120703E5827003020C9EC203754C0A020C9ED201B202B203758201CE
:200B4C00120703E582600DE539B401009204E433F539D200758200120703E5827003020C1E
:200B6C009EC202C203054C020C9ED201758200120703E5826016AF350F8F35C3748A8FF08B
:200B8C0063F08095F050037535F6D200758201120703E5827003020C9E754C0D020C9E75A3
:200BAC008200120703E5826003754C00758201120703E5827003020C9E754C0E020C9E7576
:200BCC008200120703E5826003754C02758201120703E5827003020C9E754C0F020C9E7553
:200BEC008200120703E582600990002D75F040120497758201120703E5827003020C9E755D
:200C0C004C10020C9E85248285258375100A751100120F78AE82AF83C3EE9405EF9400503B
:200C2C0002D201758200120703E58260031203AA758201120703E5826058754C0B805385E0
:200C4C00248285258375100A751100120F78AE82AF83C3EE9405EF94005002D201758200BC
:200C6C00120703AF82BF020E758201120703AF82BF0203120349758200120703AF82BF01E1
:200C8C0003754C03758201120703AF82BF0103754C0CE54C24EF5003020F14E54C240B830D
:200CAC00F582E54C241583F583E4730D0D36C0C0555555848484D9CB0D36B3FA0E0E0E0DCF
:200CCC000D0E0E0E0E0E0E0C0E0E0E0E0E782DE6C45407FFBF023D782DE6540FFFBF0500FD
:200CEC005032852682120526AF82852682C007120536AE82D007E52733920440047D0A8063
:200D0C00027D0B8D128E1075110C8F8212072DD201020F14792DE7C45407FFBF0234782DDA
:200D2C00E6540FFFBF050040297830E6C45403F5827830E6540FFF7831E6C45401FE7831D3
:200D4C00E6540FFD8F108E118D1212072DC201020F14792DE7C45407FFBF032A782DE654C0
:200D6C000FFFBF0500501F7833E6C4540FFF7833E6540FFE7510008F118E127582021207A6
:200D8C002DC201020F14792DE7C45407FFBF0324782DE6540FFFBF050040197832E65407AC
:200DAC00FF75100B8F1175120B75820A12072DC201020F14853C8275103F751100751240E3
:200DCC0012058CE53FFF701D854010782EE6C45407FE782EE6540FFD8E118D1275820A12F9
:200DEC00072D020F14854010782EE6C45407FE782EE6540FFD8E118D128F8212072D020F7E
:200E0C0014C2017830E6C45403F5827830E6540FFF7831E6C45401FE7831E6540FFD8F10AB
:200E2C008E118D1212072D020F14C2017833E6C4540FFF7833E6540FFE7510008F118E12CC
:200E4C0075820212072D020F1485378275103F75110075124012058C853F82854010AF382E
:200E6C008F0675F00AEE84F51175F00AEF84AFF08F1212072D020F14853A8275103F7511D2
:200E8C000075124012058C853B8275104175110075124012058C853F82854010854111856D
:200EAC00421212072D8061C2017832E65407FF75100B8F1175120B75820A12072D804985A7
:200ECC002682120526AF82852682C007120536AE82D007E52733920440047D0A80027D0BFE
:200EEC008D128E1075110C8F8212072D801A782DE6C45407FF782DE6540FFE75100A8F1162
:200F0C008E1275820A12072D85444885454985464A85474B20000302079E90003575F0405A
:080F2C001201D6C20002079E6B
:0D0FE500C0F9A4B0999282F88090FFBFC6B9
:200F34007A10E4FBFCE58225E0F582E58333F583EB33FBEC33FCEB9510F5F0EC95114006C1
:090F5400FCABF0438201DADD225E
:06009300E478FFF6D8FD41
:200071007900E94400601B7A00900FF2780175A000E493F2A308B8000205A0D9F4DAF27534
:02009100A0FFCE
:1B0F5D0020F71130F6138883A88220F509F6A8837583002280FEF280F5F02293
:200F7800E510451160467A01E51025E0F510E511334012F511E5829510E583951140030A06
:200F980080E6C3E51113F511E51013F510C3E5829510F5F0E58395114005F58385F082C3BB
:0D0FB800E51113F511E51013F510DAE12233
:200099007800E84400600A790175A000E4F309D8FC7800E84400600C7900900001E4F0A365
:0400B900D8FCD9FA9C
:0D006400758150120FE1E58260030200611A
:1C0FC50020F71430F6148883A88220F507E6A88375830022E280F7E49322E0223B
:040FE10075820022F3
:00000001FF
